:100000000C9446000C945D000C945D000C945D0013
:100010000C945D000C945D000C945D000C945D00EC
:100020000C945D000C945D000C945D000C945D00DC
:100030000C945D000C945D000C945D000C945D00CC
:100040000C945D000C945D000C945D000C945D00BC
:100050000C945D000C945D000C945D000C945D00AC
:100060000C945D000C945D000C945D000C945D009C
:100070000C945D000C945D000C945D000C945D008C
:100080000C945D000C945D000C945D0011241FBE67
:10009000CFEFD0E4DEBFCDBF11E0A0E0B1E0E8E1FA
:1000A000F2E000E00BBF02C007900D92AE30B10746
:1000B000D9F70E9488000C940A010C940000CF9399
:1000C000DF9300D01F92CDB7DEB789837B836A832D
:1000D00089818A3031F48A819B81BC018DE00E9444
:1000E0005F0080EC90E0FC018081882F90E08072BE
:1000F00099270097B1F386EC90E02981FC012083D9
:1001000080E090E00F900F900F90DF91CF910895D5
:10011000CF93DF93CDB7DEB728970FB6F894DEBF45
:100120000FBECDBF81E290E0FC01108281E290E041
:10013000FC01108287E290E0FC0110828AE290E0EC
:100140002FEFFC0120838BE290E0FC0110821982EA
:100150001A821B828CE88C8380E58D831E82188630
:100160001F828BE290E0FC01108280E290E0FC01B3
:100170008081898383E290E0FC0180818A8386E22A
:1001800090E0FC0180818B838CE88C8380E58D83FB
:100190001E8218861F8299818A81980F8B81890F10
:1001A0008E838981282F30E08B81882F90E0A901F0
:1001B000481B590BCA0198878F839E818C818917B0
:1001C00050F48BE290E02BE230E0F90120812C7FAB
:1001D0002160FC0120838D81282F30E08F8198855C
:1001E0002817390754F48BE290E02BE230E0F90154
:1001F00020812C7F2260FC0120838BE290E02BE2A7
:1002000030E0F9012081322F33702E81232BFC0145
:080210002083A7CFF894FFCF73
:0E02180000000002000000005F000000000077
:00000001FF
