:100000000C9446000C945D000C945D000C945D0013
:100010000C945D000C945D000C945D000C945D00EC
:100020000C945D000C945D000C945D000C945D00DC
:100030000C945D000C945D000C945D000C945D00CC
:100040000C945D000C945D000C945D000C945D00BC
:100050000C945D000C945D000C945D000C945D00AC
:100060000C945D000C945D000C945D000C945D009C
:100070000C945D000C945D000C945D000C945D008C
:100080000C945D000C945D000C945D0011241FBE67
:10009000CFEFD0E4DEBFCDBF11E0A0E0B1E0E8EDEE
:1000A000F1E000E00BBF02C007900D92AE30B10747
:1000B000D9F70E9488000C94EA000C940000CF93BA
:1000C000DF9300D01F92CDB7DEB789837B836A832D
:1000D00089818A3031F48A819B81BC018DE00E9444
:1000E0005F0080EC90E0FC018081882F90E08072BE
:1000F00099270097B1F386EC90E02981FC012083D9
:1001000080E090E00F900F900F90DF91CF910895D5
:10011000CF93DF9300D0CDB7DEB781E290E0FC0152
:10012000108287E290E02FEFFC01208388E290E0CC
:10013000FC0110821A8284E0898388E290E0FC014D
:10014000108284E0898380E290E0FC0180818170EC
:100150008A838A81813019F489818150898380E280
:1001600090E0FC01808182708A838A81823019F458
:1001700089818150898380E290E0FC0180818470D4
:100180008A838A81843019F489818150898380E24D
:1001900090E0FC01808188708A838A81883019F41C
:1001A0008981815089838981882349F488E290E09C
:1001B00028E230E0F90120812068FC01208388E2F8
:1001C00090E028E230E0F90130812981232BFC0105
:0801D0002083B3CFF894FFCFA8
:0E01D80000000002000000005F0000000000B8
:00000001FF
